:100000000C94550A0C947B0A0C947B0A0C947B0A82
:100010000C947B0A0C947B0A0C947B0A0C947B0A4C
:100020000C947B0A0C947B0A0C947B0A0C947B0A3C
:100030000C947B0A0C94C8290C947B0A0C947B0AC0
:100040000C947B0A0C947B0A0C947B0A0C947B0A1C
:100050000C947B0A0C947B0A0C947B0A0C947B0A0C
:100060000C947B0A0C9483370C94D3370C947B0A42
:100070000C947B0A0C947B0A0C947B0A0C947B0AEC
:100080000C947B0A0C947B0A0C947B0A0C947B0ADC
:100090000C947B0A0C947B0A0C947B0A0C947B0ACC
:1000A0000C947B0A0C947B0A0C947B0A0C947B0ABC
:1000B0000C947B0A0C947B0A0C945E290C944838AF
:1000C0000C947B0A0C947B0A0C947B0A0C947B0A9C
:1000D0000C947B0A0C94394A0C947B0A0C947B0A8E
:1000E0000C947B0A0C947B0A0C947B0A0C947B0A7C
:1000F0000C947B0A0C947B0A0C947B0A0C947B0A6C
:100100000C947B0A0C947B0A0C947B0A0C947B0A5B
:100110000C947B0A0C947B0A0C947B0A0C947B0A4B
:100120000C947B0A0C947B0A0C947B0A0C947B0A3B
:100130000C9493290C947B0A0C947B0A0C947B0AF4
:100140000C947B0A0C947B0A0C947B0A0C947B0A1B
:100150000C947B0A0C947B0A0C947B0A0C947B0A0B
:100160000C947B0A0C947B0A0C947B0A0C947B0AFB
:100170000C947B0A0C947B0A0C947B0A0C947B0AEB
:100180000C947B0A0C947B0A0C947B0A0C947B0ADB
:100190000C94990E0C947B0A0C947B0A0C947B0AA9
:1001A0000C947B0A0C947B0A0C947B0A0C942929EE
:1001B0000C94894A0C947B0A0C947B0A0C947B0A5D
:1001C0000C947B0A0C947B0A0C947B0A0C947B0A9B
:1001D0000C947B0A0C947B0A0C947B0A0C947B0A8B
:1001E0000C947B0A0C947B0A0C947B0A0C947B0A7B
:1001F0000C947B0AEC21F121F621FA21FE21022246
:100200000B220F22132230223022302230223022C1
:10021000302217222C2289489D480D4913498648CF
:1002200086488648864886488648AE49B349B549D7
:10023000C349E249496E743320636174636865732E
:10024000206120726973696E672065646765207438
:10025000726967676572210A004572726F72206663
:100260005F6F70656E20696E205344496E666F2E15
:100270006D61742E0A004572726F7220665F6C7336
:1002800065656B20696E2072656D61696E656420BD
:10029000646174612E0A004572726F7220665F6C31
:1002A0007365656B20696E205344496E666F2E6DD1
:1002B00061742E0A0052696E672062756666657207
:1002C0002066756E6374696F6E5F5920697320656F
:1002D0006D7074790A0052696E6720627566666592
:1002E000722066756E6374696F6E5F782069732023
:1002F000656D7074790A004572726F7220696E20A4
:10030000665F6C7365656B20696E207570646174DF
:10031000655F66756E63436E745F79206C6F6164B0
:10032000206E657874206275666665720A00726573
:1003300073203D202025750A004572726F72206976
:100340006E20665F7265616420696E20696E20753B
:1003500070646174655F66756E63436E745F790A7D
:1003600000726573203D202025750A0052696E6772
:10037000206275666665722066756E6374696F6E5D
:100380005F592069732066756C6C0A0052696E674C
:10039000206275666665722066756E6374696F6E3D
:1003A0005F5920697320656D7074790A0045727217
:1003B0006F7220696E20665F6C7365656B20696E75
:1003C0002066657463685F7570646174655F6675E7
:1003D0006E63580A00726573203D202025750A005F
:1003E0004572726F7220696E20665F72656164206B
:1003F000696E20696E2066657463685F75706461FC
:1004000074655F66756E63580A00726573203D20DF
:100410002025750A0052696E6720627566666572EE
:100420002066756E6374696F6E5F782069732066ED
:10043000756C6C0A0052696E67206275666665723B
:100440002066756E6374696F6E5F782069732065CE
:100450006D7074790A004572726F7220696E7075E2
:100460007420666F722066756E6374696F6E2063A8
:1004700068616E6E656C2E0A006E756D5F627566E2
:100480006665725F6C6F61645F79203D2025750A37
:10049000006C6173745F6C6F61645F79203D20252F
:1004A000750A0066756E6353697A655F79203D2031
:1004B00025750A004572726F7220665F6F70656EF7
:1004C00020696E207365745F76656C5F66756E6318
:1004D00020592E0A004572726F7220665F72656144
:1004E0006420696E207365745F76656C5F66756EF7
:1004F0006320592E0A0053657474696E672076650F
:100500006C6F636974792066756E6374696F6E20B1
:10051000257520666F7220590A006E756D5F6275D1
:10052000666665725F6C6F61645F78203D2025753B
:100530000A006C6173745F6C6F61645F78203D20AA
:1005400025750A0066756E6353697A655F78203D8C
:100550002025750A004572726F7220665F6F7065A4
:100560006E20696E207365745F76656C5F66756E6C
:100570006320582E0A004572726F7220665F7265A2
:10058000616420696E207365745F76656C5F667563
:100590006E6320582E0A0053657474696E67207666
:1005A000656C6F636974792066756E6374696F6ECC
:1005B0002020257520666F7220580A004572726FE0
:1005C0007220696E70757420666F722066756E6336
:1005D00074696F6E206368616E6E656C2E0A006EC2
:1005E000756D5F6275666665725F6C6F61645F7979
:1005F000203D2025750A006C6173745F6C6F616427
:100600005F79203D202575200A0066756E63536969
:100610007A655F79203D2025750A004572726F72F8
:1006200020665F6F70656E20696E207365745F7001
:100630006F735F66756E6320592E0A004572726F84
:100640007220665F72656164207365745F706F739A
:100650005F66756E6320592E0A0053657474696E67
:100660006720706F736974696F6E2066756E63744E
:10067000696F6E20257520666F7220590A006E75AD
:100680006D5F6275666665725F6C6F61645F78202E
:100690003D2025750A006C6173745F6C6F61645F47
:1006A00078203D2025750A0066756E6353697A656A
:1006B0005F78203D2025750A004572726F722066B2
:1006C0005F6F70656E20696E207365745F706F7305
:1006D0005F66756E6320582E0A004572726F722035
:1006E000665F72656164207365745F706F735F66C7
:1006F000756E6320580A0053657474696E672070C4
:100700006F736974696F6E2066756E6374696F6E5E
:1007100020257520666F7220580A0057726F6E6729
:100720002066756E6374696F6E206368616E6E65B6
:100730006C206E756D6265722E0A00536574746963
:100740006E672064656661756C742066756E63748F
:10075000696F6E20666F7220592E0A00536574749B
:10076000696E672064656661756C742066756E637A
:1007700074696F6E20666F7220582E0A00206265C1
:100780006E63685F74696D65203D20256C75206D12
:10079000732C206672616D655F72617465203D2007
:1007A00025750A0043616E6E6F742066696E642061
:1007B00074686520686172647761726520636F6E2A
:1007C0006669672066696C65206F6E2074686520B5
:1007D000534420636172642E0A005375636365732A
:1007E0007366756C6C79206C6F6164207468652029
:1007F000686172647761726520636F6E66696720F5
:1008000066696C6520746F20454550524F4D0A0053
:100810004572726F72206F70656E696E67207061CD
:10082000747465726E2066696C650A004572726F39
:10083000722072656164696E6720696E20706174F0
:100840007465726E2066696C650A002020785F6EA0
:10085000756D203D2025750A2020795F6E756D200D
:100860003D2025750A20206E756D5F70616E656C88
:1008700073203D2025750A202067735F76616C75B3
:1008800065203D2025750A20726F775F636F6D705C
:1008900072657373696F6E203D2025750A0053657C
:1008A0007474696E67207061747465726E2025754A
:1008B0003A0A005375636365737366756C6C7920CF
:1008C0006C6F6164207061747465726E2025752090
:1008D000746F207468652070616E656C730A0045E2
:1008E00072726F72206F70656E696E6720706174CE
:1008F0007465726E2066696C650A004572726F726B
:100900002072656164696E6720696E20706174741D
:1009100065726E2066696C650A004661696C656483
:1009200020746F206C6F616420746869732050615B
:10093000747465726E20746F2050616E656C730AFA
:100940000054686973207061747465726E207369F5
:100950007A6520697320256C750A0050617474658E
:10096000726E2073697A65206973207570746F20C8
:100970003830302062797465207065722070616E45
:10098000656C2E0A00524553203D2025752C2066AB
:100990005F6E756D3D2025752C206F6666736574DE
:1009A000203D20256C750A004572726F7220696EB9
:1009B00020665F6C7365656B20696E206C6F616487
:1009C0005061747465726E3250616E656C73210A89
:1009D00000524553203D2025752C20665F6E756DB5
:1009E0003D2025752C20636E743D2025750A004539
:1009F00072726F7220696E20665F72656164206931
:100A00006E206C6F61645061747465726E325061F7
:100A10006E656C73210A00202062797465735F70C3
:100A200065725F70616E656C5F6672616D65203DB9
:100A30002025750A202062797465735F7065725F86
:100A400070616E656C5F7061747465726E203D20BC
:100A500025750A002020785F6E756D203D20257574
:100A60000A2020795F6E756D203D2025750A2020B3
:100A70006E756D5F70616E656C73203D2025750A23
:100A8000202067735F76616C7565203D2025750AAF
:100A900020726F775F636F6D7072657373696F6ECD
:100AA000203D2025750A007072656C6F61642070AE
:100AB00061747465726E2025753A0A0052455320A0
:100AC0003D2025752C20665F6E756D3D2025752CAB
:100AD000206F6666736574203D20256C750A00459D
:100AE00072726F7220696E20665F6C7365656B2031
:100AF000696E2066657463685F646973706C6179A0
:100B00005F6672616D65210A00524553203D2025C4
:100B1000752C20665F6E756D3D2025752C20636EEB
:100B2000743D2025750A004572726F7220696E202F
:100B3000665F7265616420696E2066657463685FD4
:100B4000646973706C61795F6672616D65210A001A
:100B500053756363657373207365742074686520CF
:100B60006E6577206C617365722070617474657254
:100B70006E2E0A007365745F6761696E5F626961FA
:100B8000733A206761696E5F783D2025642C2020D0
:100B9000626961735F783D2025642C206761696E0E
:100BA0005F793D2025642C20626961735F793D2562
:100BB000640A007365745F706F736974696F6E3A6D
:100BC00020696E6465785F783D2025752C2020694A
:100BD0006E6465785F793D2025752C20616E6420F8
:100BE0006672616D655F6E756D3D2025750A0066E4
:100BF000756E6374696F6E205920757064617465D9
:100C0000206672657175656E6379203D2025752EAD
:100C10000A0066756E6374696F6E20582075706483
:100C2000617465206672657175656E6379203D201B
:100C300025752E0A004144435F76616C7565203D41
:100C4000202025643A0A007265736F6C7574696FB1
:100C50006E5F79203D202025643A0A007265736F2B
:100C60006C7574696F6E5F78203D202025643A0AA8
:100C70000044697361626C656420496E7433206559
:100C8000787465726E616C20747269676765722032
:100C90006D6F6465210A00456E61626C6564204970
:100CA0006E74332065787465726E616C207472693D
:100CB00067676572206D6F6465206973206F6E21B0
:100CC0000A00526573657420636F6E74726F6C6C8A
:100CD000657220746F20776F726B20696E20746864
:100CE000652050432064756D70696E67206D6F6478
:100CF00065210A00526573657420636F6E74726FAC
:100D00006C6C657220746F20776F726B20696E2037
:100D100074686520636F6E74726F6C6C6572206DA1
:100D20006F6465210A007570646174653A202564FA
:100D30002025642025642025642025642025642046
:100D400025642025643A0A0043757272656E74202A
:100D500076657273696F6E206E756D62657220695B
:100D6000732025732E0A0046756E6374696F6E20BA
:100D70005820616E642059206172652073796E631A
:100D800068726F6E697A65642E0A004375727265C7
:100D90006E7420776F726B696E67206D6F6465206B
:100DA0006973207468652050432064756D70696EA6
:100DB00067206D6F6465210A0043757272656E74F9
:100DC00020776F726B696E67206D6F646520697341
:100DD0002074686520436F6E74726F6C6C6572204E
:100DE0006D6F6465210A003F3F3F0A00204E4F545B
:100DF000205245414459210A002057524954452068
:100E000050524F544543544544210A002045525204
:100E10004F52210A0020464154204F4B210A0049DD
:100E20006E697469616C697A696E67204641542005
:100E30004469736B2E2E2E003F3F3F0A00534448F7
:100E4000430A00424C4B0A005344430A00534432C5
:100E50000A0053440A004D4D430A00436172642066
:100E6000747970653A20005344206361726420698C
:100E70007320696E697469616C697A65640A0049F6
:100E80006E697469616C697A6174696F6E206661FC
:100E9000696C65642121210A0053442063617264F6
:100EA0002069732057726974652050726F7465638E
:100EB000746564210A00496E73657274205344207E
:100EC00063617264000A4D61696E20436F6E7472D3
:100ED0006F6C6C657220576F726B730A0043616EA2
:100EE0006E6F742066696E64207468652070616E30
:100EF000656C2025642E0A0042616420657869745F
:100F000020636D642C20726573756C74203D202500
:100F1000750A00646F6E2774206B6E6F7720686FA0
:100F20007720746F206465616C2077697468207223
:100F30006563747970653D2564206174206C696E09
:100F400065202564206F6620656570726F6D2E6860
:100F500065780A000A00766572696679206D6973A2
:100F60006D6174636820666F72207061676520250B
:100F7000640A00766572696679206D69736D6174C3
:100F8000636820666F7220706167652025640A00BF
:100F9000636865636B73756D3D3078253032782CEE
:100FA00020636F6D707574656420636865636B732F
:100FB000756D3D3078253032780A004552524F52D7
:100FC0003A20636865636B73756D206D69736D613D
:100FD000746368206174206C696E65202564206FDD
:100FE0006620656570726F6D2E6865780A000A76F6
:100FF0006572696679696E673A20004572726F7230
:1010000020665F6C7365656B20696E206565707224
:101010006F6D2E6865782E0A00646F6E2774206BE2
:101020006E6F7720686F7720746F206465616C2025
:101030007769746820726563747970653D256420F2
:101040006174206C696E65202564206F662065657B
:1010500070726F6D2E6865782E0A00636865636B29
:1010600073756D3D3078253032782C20636F6D704C
:101070007574656420636865636B73756D3D307866
:10108000253032780A004552524F523A2063686543
:10109000636B73756D206D69736D61746368206136
:1010A00074206C696E65202564206F66206565700C
:1010B000726F6D2E6865782E0A000A7772697469FE
:1010C0006E673A202020004261642070616E656C7A
:1010D0002072657365742C20726573756C74203D85
:1010E0002025750A00656570726F6D2070616E65F0
:1010F0006C2025752E0A004572726F7220665F6F34
:1011000070656E20696E20656570726F6D2E686502
:10111000782E0A0025530A004F4B004449534B5F79
:1011200045525200494E545F455252004E4F545F53
:101130005245414459004E4F5F46494C45004E4F81
:101140005F5041544800494E56414C49445F4E411E
:101150004D450044454E49454400455849535400C7
:10116000494E56414C49445F4F424A45435400570B
:10117000524954455F50524F5445435445440049E9
:101180004E56414C49445F4452495645004E4F54D7
:101190005F454E41424C4544004E4F5F46494C45E9
:1011A0005F53595354454D004D4B46535F41424F99
:1011B000525445440054494D454F55540000436135
:1011C0006E6E6F742066696E64207468652070614D
:1011D0006E656C2025642E0A004261642065786982
:1011E0007420636D642C20726573756C74203D20CF
:1011F00025750A00646F6E2774206B6E6F77206808
:101200006F7720746F206465616C20776974682043
:10121000726563747970653D2564206174206C6922
:101220006E65202564206F662070616E656C2E6887
:1012300065780A000A00766572696679206D6973BF
:101240006D6174636820666F722070616765202528
:10125000640A00766572696679206D69736D6174E0
:10126000636820666F7220706167652025640A00DC
:10127000636865636B73756D3D3078253032782C0B
:1012800020636F6D707574656420636865636B734C
:10129000756D3D3078253032780A004552524F52F4
:1012A0003A20636865636B73756D206D69736D615A
:1012B000746368206174206C696E65202564206FFA
:1012C000662070616E656C2E6865780A000A766526
:1012D00072696679696E673A20004572726F722092
:1012E000665F6C7365656B20696E2070616E656CFE
:1012F0002E6865782E0A00646F6E2774206B6E6FFF
:101300007720686F7720746F206465616C2077693F
:10131000746820726563747970653D25642061741A
:10132000206C696E65202564206F662070616E6593
:101330006C2E6865780A00636865636B73756D3D34
:101340003078253032782C20636F6D707574656449
:1013500020636865636B73756D3D30782530327836
:101360000A004552524F523A20636865636B7375A9
:101370006D206D69736D61746368206174206C69A0
:101380006E65202564206F662070616E656C2E6826
:1013900065782E0A000A77726974696E673A2020B0
:1013A00020004261642070616E656C207265736517
:1013B000742C20726573756C74203D2025750A00AD
:1013C000666C6173682070616E656C2025752E0AED
:1013D000004572726F7220665F6F70656E20696E75
:1013E0002070616E656C2E6865782E0A004261641B
:1013F00020666C61736820726561642C207265736D
:10140000756C74203D2025750A002300426164201C
:10141000666C61736820726561642C2072657375F7
:101420006C74203D2025750A00230042616420650C
:101430006570726F6D2077726974652C20726573A8
:10144000756C74203D2025750A00230042616420DC
:10145000666C61736820726561642C2072657375B7
:101460006C74203D2025750A0023004261642066CB
:101470006C61736820726561642C20726573756C91
:1014800074203D2025750A00230042616420666CAB
:101490006173682077726974652C20726573756C4E
:1014A00074203D2025750A00230011241FBECFEFB4
:1014B000DFE3DEBFCDBF00E00CBF18BE19BE1ABE11
:1014C0001BBE13E2A0E0B0E2E0E2F6EA00E00BBFF0
:1014D00002C007900D92AE3FB107D9F71BBE1BE2C9
:1014E000AEEFB3E201C01D92AA30B107E1F70E944E
:1014F00090260C940E530C940000AC0120E030E0D8
:10150000F901EE55FA4DDA01A20FB31F8C918083D9
:101510002F5F3F4F2E33310599F708958091CE26E6
:101520009091CF2601968093CE269093CF268091DE
:10153000CE269091CF2640912727509128278417B7
:10154000950720F01092CE261092CF268091722817
:10155000909173282091CE263091CF26BC01649FB4
:10156000C001659F900D749F900D1124820F931FF1
:1015700080930424909305248091FF23882329F0ED
:101580008091FE238F5F8093FE23089580917228BF
:1015900090917328019680937228909373282091DC
:1015A0007228309173288091C6249091C7242817FF
:1015B000390720F010927228109273282091722817
:1015C000309173284091CE265091CF2680912727C5
:1015D00090912827BC01269FC001279F900D369F20
:1015E000900D1124840F951F80930424909305245B
:1015F0008091FF23882329F48091FE238F5F8093BD
:10160000FE2308958091CE269091CF26892B29F430
:10161000809127279091282704C08091CE26909111
:10162000CF2601978093CE269093CF2620917228C3
:10163000309173284091CE265091CF268091272754
:1016400090912827BC01269FC001279F900D369FAF
:10165000900D1124840F951F8093042490930524EA
:101660008091FF23882329F08091FE238F5F809350
:10167000FE2308958091722890917328892B29F474
:101680008091C6249091C72404C0809172289091C3
:101690007328019780937228909373282091722861
:1016A000309173284091CE265091CF2680912727E4
:1016B00090912827BC01269FC001279F900D369F3F
:1016C000900D1124840F951F80930424909305247A
:1016D0008091FF23882329F48091FE238F5F8093DC
:1016E000FE230895813021F0823009F065C032C0B8
:1016F0008091B320882321F48CE597E00E942F4C41
:1017000010920D2410920E2484E690E0A0E0B0E048
:101710008093AB209093AC20A093AD20B093AE20EB
:10172000E9E2F7E28AE090E08193919327E2E13FDA
:10173000F207D1F71092062481E08093A32081E084
:1017400090E08093B4209093B520109211241092D1
:10175000122408958091B320882321F48BE397E02D
:101760000E942F4C10920F241092102484E690E0D7
:10177000A0E0B0E08093AF209093B020A093B12080
:10178000B093B220E9ECF4E28AE090E08193919387
:1017900025E2E139F207D1F71092072481E0809326
:1017A000A42081E090E08093B6209093B72010921F
:1017B00013241092142408958BE197E00E942F4C7B
:1017C0000895AC0120E030E0F901EE55FA4DDA0160
:1017D000A20FB31F8C9186AF2F5F3F4F2F33310580
:1017E00099F78091B320882321F480E59BE00E9443
:1017F0002F4C0895A4E3B0E0E0E0FCE00C94AE4D83
:101800008DE097E268EB70E241E00E94B0408823EF
:1018100009F0ADC08090172770911827682D80912E
:10182000192790911A2722E330E040E050E00E940F
:10183000704D79018A019924939422E3322E93E02A
:10184000692E712C6C0E7D1E2E010894411C511CBA
:1018500036C0939CC0011124C2975C01CC24B7FC14
:10186000C094DC2C8DE097E2B601A5010E94503CAB
:10187000882301F58091132790911427A0911527B3
:10188000B09116278A159B05AC05BD0599F48DE02E
:1018900097E2B30142E350E092010E94C23E8823E6
:1018A00069F489819A81C29749F4C30162E30E9475
:1018B000673704C087E992E00E942F4C9394892DEA
:1018C00090E0A0E0B0E0E816F9060A071B0708F070
:1018D000C0CF82E3989EC0011124C2975C01CC2442
:1018E000B7FCC094DC2C8DE097E2B601A5010E9404
:1018F000503C882399F58091132790911427A0914B
:101900001527B09116278A159B05AC05BD0531F545
:10191000C801B70122E330E040E050E00E942A4DC8
:10192000D82CD61A0D2D10E083E0E82EF12CEC0E09
:10193000FD1E8DE097E2B701A8019E012F5F3F4F8A
:101940000E94C23E882371F489819A818017910791
:1019500049F4C7016D2D0E94673704C086E792E005
:101960000E942F4C8DE097E20E94083B04C089E55D
:1019700092E00E942F4CE496E1E10C94CA4D8091D4
:101980000A24882319F486ED92E006C080910B2486
:10199000882329F485EB92E00E942F4C08958091D2
:1019A000CC26843021F0853009F0A2C079C0E091C6
:1019B0000624F0E0EE0FFF1FE75DF84D0190F08187
:1019C000E02D80911F2690912026E80FF91F20918D
:1019D000272730912827F7FD09C0CF01B9010E94C0
:1019E000494D8093CE269093CF2610C08827992703
:1019F0008E1B9F0BB9010E94494D21503040A90117
:101A0000481B590B4093CE265093CF26E0910724D4
:101A1000F0E0EE0FFF1FE753FB4D0190F081E02D4A
:101A20008091912590919225E80FF91F2091C6246D
:101A30003091C724F7FD09C0CF01B9010E94494D7B
:101A4000809372289093732810C0882799278E1B43
:101A50009F0BB9010E94494D21503040B901681BCC
:101A6000790B6093722870937328209172283091BB
:101A700073284091CE265091CF26809127279091B0
:101A80002827BC01269FC001279F900D369F900DEF
:101A90001124840F951F809304249093052428C05B
:101AA000E0910624F0E0EE0FFF1FE75DF84D808126
:101AB0009181BC0155E0660F771F5A95E1F7680FD9
:101AC000791F80E00E94492BE0910724F0E0EE0F9F
:101AD000FF1FE753FB4D80819181BC0135E0660F0C
:101AE000771F3A95E1F7680F791F81E00E94492B33
:101AF000809106248F5F809306248091062484368B
:101B000010F01092062480910A24815080930A24B8
:101B1000809107248F5F8093072480910724843667
:101B200010F01092072480910B24815080930B2495
:101B3000089580910B24882329F48CE893E00E9477
:101B40002F4C089580910A27843021F0853009F0C8
:101B50005FC04AC0E0910724F0E0EE0FFF1FE7539B
:101B6000FB4D0190F081E02D80919125909192257F
:101B7000E80FF91F2091C6243091C724F7FD09C052
:101B8000CF01B9010E94494D809372289093732828
:101B900010C0882799278E1B9F0BB9010E94494DC1
:101BA00021503040A901481B590B40937228509393
:101BB000732820917228309173284091CE2650913D
:101BC000CF268091272790912827BC01269FC0010E
:101BD000279F900D369F900D1124840F951F8093A1
:101BE00004249093052414C0E0910724F0E0EE0F44
:101BF000FF1FE753FB4D80819181BC01B5E0660F6B
:101C0000771FBA95E1F7680F791F81E00E94492B91
:101C1000809107248F5F8093072480910724843666
:101C200010F01092072480910B24815080930B2494
:101C3000089580910A24882329F485E394E00E9482
:101C40002F4C08958091CC26843021F0853009F006
:101C50005FC04AC0E0910624F0E0EE0FFF1FE75D91
:101C6000F84D0190F081E02D80911F269091202663
:101C7000E80FF91F2091272730912827F7FD09C089
:101C8000CF01B9010E94494D8093CE269093CF2673
:101C900010C0882799278E1B9F0BB9010E94494DC0
:101CA00021503040A901481B590B4093CE26509338
:101CB000CF2620917228309173284091CE265091E2
:101CC000CF268091272790912827BC01269FC0010D
:101CD000279F900D369F900D1124840F951F8093A0
:101CE00004249093052414C0E0910624F0E0EE0F44
:101CF000FF1FE75DF84D80819181BC0125E0660FF3
:101D0000771F2A95E1F7680F791F80E00E94492B21
:101D1000809106248F5F8093062480910624843668
:101D200010F01092062480910A24815080930A2496
:101D300008951F920F920FB60F9208B60F9209B630
:101D40000F920BB60F92112418BE19BE1BBE0F9333
:101D50001F932F933F934F935F936F937F938F9333
:101D60009F93AF93BF93EF93FF931092062410922B
:101D7000072411E01093A1201093A22010929C2020
:101D80001092FE2382E09AE14EE450E060E070E0C1
:101D900021E001E00E94C9388EE89AE04EE450E06C
:101DA00060E070E022E000E00E94C93886EC9AE032
:101DB0004EE450E060E070E023E00E94C93880917A
:101DC000A3208823F9F48091A4208823D9F42091BA
:101DD000A5203091A6208091A7209091A8202817B7
:101DE000390781F410930C240E94BF0C4091A52068
:101DF0005091A62060E070E08FEB9CE024E001E0D1
:101E00000E94C9388091A320882359F04091A520D1
:101E10005091A62060E070E089E19EE024E000E0BF
:101E20000CC00E94190E4091A5205091A62060E0A0
:101E300070E089E19EE024E001E00E94C9388091D1
:101E4000A420882359F04091A7205091A82060E059
:101E500070E089E99DE025E000E00CC00E94990D4A
:101E60004091A7205091A82060E070E089E99DE0B2
:101E700025E001E00E94C93884E392E00E942F4CE3
:101E8000FF91EF91BF91AF919F918F917F916F9152
:101E90005F914F913F912F911F910F910F900BBE2A
:101EA0000F9009BE0F9008BE0F900FBE0F901F90AD
:101EB0001895A6E6B0E0EFE5FFE00C94B84D982F3A
:101EC000D62E80910B24843618F08CE693E0AEC0B9
:101ED000913031F410920B241092072410920924AF
:101EE00084E6D89EC001112480509E4F7C0100E002
:101EF00010E081E296E2B801A7010E94503C282F31
:101F0000882309F07CC08091272690912826A091F3
:101F10002926B0912A268E159F05A007B10709F042
:101F20006EC02D2D30E08091B6209091B7200197A2
:101F30002817390739F4009113241091142401153E
:101F4000110511F404E610E081E296E2BE016D5F36
:101F50007F4FA8019E012F5F3F4F0E94C23E282F56
:101F6000882329F489819A8180179107C9F000D0CC
:101F70000F92EDB7FEB7319681E693E0ADB7BEB7ED
:101F800011968D939C931297228313820E94714C19
:101F90000F900F900F900F9089E393E00E942F4CC9
:101FA00069817A81DE01139640E050E024C0E0911F
:101FB0000924F0E0EE0FFF1FE753FB4D11963C9113
:101FC000119720E08C918901080F111D0083118366
:101FD000809109248F5F809309248091092484369D
:101FE00010F01092092480910B248F5F80930B24B2
:101FF0004E5F5F4F129646175707C8F219C000D0C0
:102000000F92EDB7FEB731968EE293E0ADB7BEB753
:1020100011968D939C931297228313820E94714C88
:102020000F900F900F900F9087EF92E00E942F4C2F
:10203000CA59DF4FE7E00C94D44DA6E6B0E0E3E2E6
:10204000F0E10C94B84D982FD62E80910A24843656
:1020500018F085E194E0AEC0913031F4109206247E
:102060001092082410920A2484E6D89EC0011124FC
:1020700080509E4F7C0100E010E08BE994E2B801B3
:10208000A7010E94503C282F882309F07CC0809132
:10209000A1249091A224A091A324B091A4248E15F0
:1020A0009F05A007B10709F06EC02D2D30E080918B
:1020B000B4209091B52001972817390739F4009181
:1020C0001124109112240115110511F404E610E0F9
:1020D0008BE994E2BE016D5F7F4FA8019E012F5FE7
:1020E0003F4F0E94C23E282F882329F489819A817C
:1020F00080179107C9F000D00F92EDB7FEB7319667
:102100008AE094E0ADB7BEB711968D939C93129779
:10211000228313820E94714C0F900F900F900F90AA
:1021200080EE93E00E942F4C69817A81DE01139644
:1021300040E050E024C0E0910824F0E0EE0FFF1FE3
:10214000E75DF84D11963C91119720E08C91890143
:10215000080F111D00831183809108248F5F8093E5
:10216000082480910824843610F01092082480916D
:102170000A248F5F80930A244E5F5F4F12964617A2
:102180005707C8F219C000D00F92EDB7FEB73196CD
:1021900085ED93E0ADB7BEB711968D939C931297E2
:1021A000228313820E94714C0F900F900F900F901A
:1021B0008DEA93E00E942F4CCA59DF4FE7E00C9460
:1021C000D44DAEE0B2E0E7EEF0E10C94B94D082F4B
:1021D000162F6A3080F400D000D0EDB7FEB73196EC
:1021E000CE010396ADB7BEB711968D939C9312970F
:1021F00080E090E21FC0CE010396643670F400D0F8
:1022000000D0EDB7FEB73196ADB7BEB711968D933E
:102210009C9312978EE090E20DC000D000D0EDB7F5
:10222000FEB73196ADB7BEB711968D939C931297BA
:102230008BE190E282839383148315820E940D5078
:10224000EDB7FEB73696EDBFFEBF013021F002308C
:1022500009F090C1C7C08BE994E20E94083B8BE96A
:1022600094E2BE016D5F7F4F41E00E94B040882341
:1022700009F044C08BE994E2BE01615F7F4F40E00A
:1022800052E09E012F5F3F4F0E94C23E882399F586
:1022900089819A818050924071F58F858093AB201F
:1022A00088898093AC2089898093AD208A89809326
:1022B000AE2010930D2410920E2400939C201092B7
:1022C000FE238091B3208823E9F400D00F92EDB76C
:1022D000FEB7319687E995E0ADB7BEB711968D93FD
:1022E0009C931297128313820E94714C0F900F904F
:1022F0000F900F9007C086E795E002C085E595E056
:102300000E942F4CE090AB20F090AC200091AD20CB
:102310001091AE20C801B70124E630E040E050E063
:102320000E94704D6093112470931224672B49F41E
:10233000C801B70124E630E040E050E00E94704D53
:102340000AC0C801B70124E630E040E050E00E9436
:10235000704D2F5F3F4F2093B4203093B520809174
:10236000B3208823C1F500D000D084E495E0EDB718
:10237000FEB781839283ADB7BEB71396ED92FD92FF
:102380000D931C9316970E94714C0F900F9082E34F
:1023900095E0EDB7FEB781839283809111249091EF
:1023A0001224838394830E94714C8AE195E0ADB737
:1023B000BEB711968D939C9312978091B420909103
:1023C000B52013968D939C9314970E94714C0F9097
:1023D0000F900F900F901092A32081E060E00E9478
:1023E0001D10CCC081E296E20E94083B81E296E299
:1023F000BE016D5F7F4F41E00E94B040882309F02D
:1024000045C081E296E2BE01615F7F4F40E052E04D
:102410009E012F5F3F4F0E94C23E8823A1F5898114
:102420009A818050924079F58F858093AF2088897A
:102430008093B02089898093B1208A898093B220CB
:1024400010930F241092102481E080939C2010920E
:10245000FE238091B3208823E9F400D00F92EDB7DA
:10246000FEB7319686EF94E0ADB7BEB711968D9367
:102470009C931297128313820E94714C0F900F90BD
:102480000F900F9007C085ED94E002C084EB94E0BC
:102490000E942F4CE090AF20F090B0200091B1202E
:1024A0001091B220C801B70124E630E040E050E0CE
:1024B0000E94704D6093132470931424672B49F489
:1024C000C801B70124E630E040E050E00E94704DC2
:1024D0000AC0C801B70124E630E040E050E00E94A5
:1024E000704D2F5F3F4F2093B6203093B7208091DF
:1024F000B3208823C1F500D000D083EA94E0EDB783
:10250000FEB781839283ADB7BEB71396ED92FD926D
:102510000D931C9316970E94714C0F900F9081E9B8
:1025200094E0EDB7FEB7818392838091132490915C
:102530001424838394830E94714C89E794E0ADB79F
:10254000BEB711968D939C9312978091B62090916F
:10255000B72013968D939C9314970E94714C0F9003
:102560000F900F900F901092A42081E060E00E94E5
:10257000590F04C086E594E00E942F4CC25FDD4FE6
:10258000E6E00C94D54DAEE0B2E0E9ECF2E10C945B
:10259000B94D082F162F6A3080F400D000D0EDB767
:1025A000FEB73196CE010396ADB7BEB711968D93A7
:1025B0009C93129787E290E21FC0CE010396643687
:1025C00070F400D000D0EDB7FEB73196ADB7BEB70E
:1025D00011968D939C93129785E390E20DC000D0E5
:1025E00000D0EDB7FEB73196ADB7BEB711968D935B
:1025F0009C93129782E490E28283938314831582E2
:102600000E940D50EDB7FEB73696EDBFFEBF01300C
:1026100021F0023009F094C1C7C08BE994E20E9416
:10262000083B8BE994E2BE016D5F7F4F41E00E9461
:10263000B040882309F044C08BE994E2BE01615F99
:102640007F4F40E052E09E012F5F3F4F0E94C23E0D
:10265000882399F589819A818050924071F58F8500
:102660008093AB2088898093AC2089898093AD20AA
:102670008A898093AE2010930D2410920E2400932B
:102680009C201092FE238091B3208823E9F400D08F
:102690000F92EDB7FEB7319687EF96E0ADB7BEB7B4
:1026A00011968D939C931297128313820E94714C02
:1026B0000F900F900F900F9007C08AED96E002C028
:1026C00089EB96E00E942F4CE090AB20F090AC207C
:1026D0000091AD201091AE20C801B70124E630E092
:1026E00040E050E00E94704D6093112470931224DA
:1026F000672B49F4C801B70124E630E040E050E020
:102700000E94704D0AC0C801B70124E630E040E0E5
:1027100050E00E94704D2F5F3F4F2093B4203093C4
:10272000B5208091B3208823C1F500D000D088EA7D
:1027300096E0EDB7FEB781839283ADB7BEB713962F
:10274000ED92FD920D931C9316970E94714C0F9081
:102750000F9086E996E0EDB7FEB781839283809172
:10276000112490911224838394830E94714C8EE7EC
:1027700096E0ADB7BEB711968D939C93129780915A
:10278000B4209091B52013968D939C9314970E943A
:10279000714C0F900F900F900F901092A32081E03A
:1027A00060E00E941D10D0C081E296E20E94083BCA
:1027B00081E296E2BE016D5F7F4F41E00E94B04032
:1027C000882309F045C081E296E2BE01615F7F4F38
:1027D00040E052E09E012F5F3F4F0E94C23E88239F
:1027E000A1F589819A818050924079F58F858093F7
:1027F000AF2088898093B02089898093B1208A890D
:102800008093B22010930F241092102481E08093C3
:102810009C201092FE238091B320882309F500D0DC
:102820000F92EDB7FEB731968AE596E0ADB7BEB729
:1028300011968D939C931297128313820E94714C70
:102840000F900F900F900F900BC08CE396E006C096
:102850008091B320882321F48BE196E00E942F4CD5
:10286000E090AF20F090B0200091B1201091B22004
:10287000C801B70124E630E040E050E00E94704D0E
:102880006093132470931424672B49F4C801B70193
:1028900024E630E040E050E00E94704D0AC0C801DC
:1028A000B70124E630E040E050E00E94704D2F5F19
:1028B0003F4F2093B6203093B7208091B3208823D8
:1028C000C1F500D000D08AE096E0EDB7FEB7818375
:1028D0009283ADB7BEB71396ED92FD920D931C9304
:1028E00016970E94714C0F900F9087EF95E0EDB70F
:1028F000FEB7818392838091132490911424838363
:1029000094830E94714C8FED95E0ADB7BEB71196E0
:102910008D939C9312978091B6209091B720139637
:102920008D939C9314970E94714C0F900F900F9071
:102930000F901092A42081E060E00E94590F04C023
:102940008CEB95E00E942F4CC25FDD4FE6E00C94CB
:10295000D54D1F93CF93DF93162FEA01882349F5B6
:102960008091A0258823E1F783E995E260E0AE013C
:10297000212F0E94A13980919B288823E1F78EE8BE
:1029800098E260E0AE01212F0E94A1398091482693
:102990008823E1F78BE396E260E0AE01212F0E94ED
:1029A000A1398091C4248823E1F787EB94E260E0A9
:1029B00022C0E82FF0E0DF01A55BB94DAC91EF50EC
:1029C000F84D6081AA23D9F0A33051F0A43059F01A
:1029D000A23019F4AEE8B8E208C0A3E9B5E205C038
:1029E000ABE3B6E202C0A7EBB4E21D968C911D9753
:1029F0008823D9F7CD01AE01212F0E94A139DF91A3
:102A0000CF911F910895CF93DF93FC018081813096
:102A100009F049C0928180E02181DC01A20FB11D43
:102A2000A0930B27B0930C27948180E02381BC01F5
:102A3000620F711D6093B5247093B624968180E077
:102A40002581AC01420F511D4093D0265093D126D1
:102A5000908580E02781EC01C20FD11D9E01C093BB
:102A6000C02AD093C12A8091B320882311F5EDB7F5
:102A7000FEB73A97EDBFFEBF319684E79BE0CDB736
:102A8000DEB789839A83A283B38364837583468385
:102A90005783208731870E94714CEDB7FEB73A9675
:102AA000EDBFFEBF06C080E068E040EF50E20E944C
:102AB000A914DF91CF910895FC018081803119F034
:102AC0008131A9F407C08181738160E09281690F2F
:102AD000711D09C0738160E08281680F711D818161
:102AE000709561957F4F81500E94492B089580E039
:102AF00068E040EE50E20E94A9140895A2E0B0E020
:102B0000E4E8F5E10C94BA4D8C01FC01808185323A
:102B100009F4B5C0863250F4853109F49AC0803288
:102B200009F4A0C0803109F01DC18BC0853309F4C0
:102B3000EEC08F3F21F0803309F014C1BEC0F80110
:102B4000F1808091A0258823E1F783E995E26F2D3C
:102B500040E051E222E00E94A13980919B28882325
:102B6000E1F78EE898E26F2D40E051E222E00E940A
:102B7000A139809148268823E1F78BE396E26F2DF7
:102B800040E051E222E00E94A1398091C4248823D0
:102B9000E1F787EB94E26F2D40E051E222E00E94E2
:102BA000A13980EF95E520E233E0F9013197F1F7A3
:102BB0000197D9F78FEF8983F80192818091A02541
:102BC0008823E1F79A8383E995E26F2DAE014F5F89
:102BD0005F4F22E00E94A13980919B288823E1F772
:102BE0008EE898E26F2DAE014F5F5F4F22E00E94AA
:102BF000A139809148268823E1F78BE396E26F2D77
:102C0000AE014F5F5F4F22E00E94A1398091C42442
:102C10008823E1F787EB94E26F2DAE014F5F5F4FA2
:102C200022E00E94A13984EF91E020E233E0F90133
:102C30003197F1F70197D9F780E062E040E051E287
:102C400095C0F80181818093CC26828180930A27E8
:102C50008FC0F8016281662349F0F80181810E94EA
:102C6000C31286C0F8016281662321F481810E942B
:102C7000720B7EC0F80181810E94E11079C0F801D9
:102C8000928180E021818C01020F111D980140E0AA
:102C900050E062E17AE780E090E00E94924D20935C
:102CA000A5203093A6208091B320882309F060C02E
:102CB00000D00F9282E19CE01DC0F801928180E07B
:102CC00021818C01020F111D980140E050E062E16A
:102CD0007AE780E090E00E94924D2093A720309305
:102CE000A8208091B320882309F042C000D00F9221
:102CF0008FEE9BE0EDB7FEB781839283038314834D
:102D00000E94714C0F900F900F900F9031C0F801FE
:102D1000618170E080E090E02FEF3FE040E050E024
:102D20000E942A4D2AE030E040E050E00E94704DC1
:102D300020939D2030939E20F801628170E080E016
:102D400090E02FEF3FE040E050E00E942A4D2AE063
:102D500030E040E050E00E94704D20939F2030937F
:102D6000A02006C080E068E048ED50E20E94A9146F
:102D70002296E5E00C94D64DA2E8B0E0E2ECF6E154
:102D80000C94B74D282F8A3080F400D000D0EDB7D6
:102D9000FEB7319685E194E2ADB7BEB711968D933B
:102DA0009C9312978EE490E21FC085E194E2243652
:102DB00070F400D000D0EDB7FEB73196ADB7BEB716
:102DC00011968D939C9312978CE590E20DC000D0E4
:102DD00000D0EDB7FEB73196ADB7BEB711968D9363
:102DE0009C93129789E690E28283938324831582D1
:102DF0000E940D50EDB7FEB73696EDBFFEBF8DE0D9
:102E000097E265E174E241E00E94B0408823C9F591
:102E100093E0C92ED12CCC0EDD1E8DE097E2B601D9
:102E200040E850E09E012F5F3F4F0E94C23E882342
:102E300009F589819A8180389105E1F48CE4E82EC6
:102E400086E2F82E00E010E0F601E00FF11F60814D
:102E5000D7016D937D010F5F1F4FC8018F5F9F4F9B
:102E60000E9448520038110579F781E090E060E057
:102E70000E9448528DE097E20E94083B8AED97E05D
:102E800002C084EA97E00E942F4CCE57DF4FE8E063
:102E90000C94D34DAAE2B2E0E0E5F7E10C94AD4D1D
:102EA000882E8DB79EB7C95DDD4F88839983C75241
:102EB000D2408FB799E0981580F000D000D0EDB7E0
:102EC000FEB731968DE294E2ADB7BEB711968D9301
:102ED0009C93129785E790E220C08DE294E2F3E69E
:102EE000F81570F000D000D0EDB7FEB73196ADB751
:102EF000BEB711968D939C93129783E890E20DC014
:102F000000D000D0EDB7FEB73196ADB7BEB7119681
:102F10008D939C93129780E990E2828393838482BD
:102F200015820E940D50EDB7FEB73696EDBFFEBF7D
:102F300084E798E26DE274E241E00E94B0408823A9
:102F400009F02AC284E798E2BE01695D7F4F40E044
:102F500052E09E012F5F3F4F0E94C23E882309F03E
:102F600014C289819A818050924009F00EC28FA1CB
:102F70008093272788A58093282789A58093C62436
:102F80008AA58093C7248BA5809303244CA54093E6
:102F90004A262091C6243091C724809127279091FA
:102FA0002827289F2001299F500C389F500C11245E
:102FB000842F8B50843050F4942F9A5090934A264B
:102FC00081E08093C8249093CD260BC01092C82432
:102FD000842F90E053E0880F991F5A95E1F7809372
:102FE000CD261092722810927328809172289091A9
:102FF00073288093CE269093CF26109204241092AB
:10300000052481E080939C201092FE238091CD26A0
:1030100090E0849D8001859D100D949D100D1124DC
:103020008091B320882309F054C000D00F92EDB7EF
:10303000FEB7319687EA9AE0ADB7BEB711968D9389
:103040009C931297828213820E94714CEDB7FEB757
:103050003897EDBFFEBF319684E59AE0ADB7BEB7B5
:1030600011968D939C9312978091272790912827F2
:10307000828393838091C6249091C724848395830F
:10308000809103248683178280914A268087118647
:103090008091C824828713860E94714CEDB7FEB7D9
:1030A0003696EDBFFEBF319687E19AE0ADB7BEB769
:1030B00011968D939C9312978091CD2682831382D3
:1030C000048315830E94714CEDB7FEB73696EDBFB1
:1030D000FEBFF3E001321F0708F02EC11B821C82E5
:1030E00043E0242E312C2C0E3D1E35E0A32EB12CB6
:1030F000AC0EBD1E1AC18DB7C75DDD4F8883C952A6
:10310000D2409EB7C65DDD4F9883CA52D24090919F
:10311000CD2680910324989F60011124ADB7BEB7DE
:10312000AC19BD09ADBFBEBF6DB67EB60894611CBB
:10313000711C6D2D66956F5F70E080E090E040E05F
:1031400050E00E942A4D7B018C010894E11CF11C87
:10315000011D111D29E0EE0CFF1C001F111F2A95F7
:10316000D1F784E798E2B801A7010E94503C982E5D
:10317000882309F091C080917A2890917B28A091B2
:103180007C28B0917D288E159F05A007B10709F016
:1031900083C084E798E2B301A6019E012F5F3F4FF1
:1031A0000E94C23E182F882309F04FC089819A815E
:1031B0008C159D0509F049C0E091CD26F0E0950100
:1031C0002E0F3F1FD1018C91D9018C9386E090E0A6
:1031D0008C0F9D1FE80FF91FD10111968C918083F0
:1031E00011E0EE24FF2425C08D9181938E2F8A1942
:1031F0008617D0F38091C824882319F46E5F812F3D
:1032000010C080914A26833039F0843041F08130FB
:1032100059F4812F65E005C0812F66E002C0812F3F
:1032200067E0A5010E94A9148091CD26E80EF11C4B
:103230001F5F80910324811708F465C06091CD263B
:10324000D301AE0DBF1DF501D1CF8091B3208823EE
:1032500009F059C08FEE99E00E942F4CEDB7FEB7F0
:103260003897EDBFFEBF319681ED99E0ADB7BEB79F
:1032700011968D939C931297128313828B819C815C
:103280008483958389819A81868397830E94714C78
:10329000EDB7FEB7389627C08091B320882399F503
:1032A00088EA99E00E942F4C8DB79EB70A978DBF90
:1032B0009EBFEDB7FEB7319685E899E0ADB7BEB7D2
:1032C00011968D939C931297928213828B819C818D
:1032D00084839583E682F782008711870E94714C70
:1032E000EDB7FEB73A96EDBFFEBFC75DDD4F8881F3
:1032F000C952D240C65DDD4F9881CA52D2409C016E
:103300002DBF3EBF6EC0C75DDD4F2881C952D24080
:10331000C65DDD4F3881CA52D240C9018DBF9EBF04
:103320008B819C8101968B839C832B813C8124150E
:10333000350508F4E0CE39C00F920F928BE599E085
:10334000ADB7BEB711968D939C9312970E94714CA6
:103350000F920F9281E499E0EDB7FEB781839283DB
:10336000038314830E94714C0F900F908AE199E0BF
:10337000ADB7BEB711968D939C9312970E94714C76
:10338000109202240F900F902CC08091B3208823BC
:1033900041F58BEF98E006C08091B320882309F5B2
:1033A0008FED98E00E942F4C1CC084E798E20E94A9
:1033B000083B81E08093022400D00F92EDB7FEB766
:1033C000319683EB98E0ADB7BEB711968D939C9381
:1033D0001297828213820E94714C0F900F900F906F
:1033E0000F90C95DDD4FE881F981C752D240EDBF32
:1033F000FEBFC65DDD4FE2E10C94C94D83E00E9443
:10340000C82A0895A0E0B0E0E8E0FAE10C94B34DDA
:103410008091CC26813009F1813038F0823009F476
:103420004BC0833009F0E7C089C0E09106242091A9
:103430000B2730910C27220F331FF0E0EE0FFF1FF8
:10344000E75DF84D80819181AC01249FC001259FEB
:10345000900D349F900D11241CC080E00E94D92A49
:1034600064E070E00E945D4DCB01880F991F880FCA
:10347000991F6AE070E00E945D4D80910B2790914A
:103480000C279C01629FC001639F900D729F900D5D
:1034900011246AE070E00E945D4DCB014091B5249B
:1034A0005091B6249A01220F331F220F331F240F8D
:1034B000351F820F931F3CC080E00E94D92A64E030
:1034C00070E00E945D4DCB01E0910624F0E0EE0F2C
:1034D000FF1FE75DF84D0190F081E02DEE0FFF1F1B
:1034E0004091B5245091B6249A01220F331F220F28
:1034F000331F240F351FE20FF31F880F991F880F0A
:10350000991F6AE070E00E945D4D80910B279091B9
:103510000C27AC01649FC001659F900D749F900DB6
:1035200011246AE070E00E945D4DCF01860F971F65
:1035300062E070E00E945D4D4B015FC082E00E943E
:10354000D92AFC0180919D2090919E208E179F0783
:1035500008F4FC01C0912727D09128275E01CC24D4
:10356000DD247C0100E010E0C601B501660F771F85
:10357000881F991F9F01442737FD4095542F0E94B3
:103580002A4D6E0D7F1D801F911FEE0CFF1C001F2A
:10359000111FA80197010E94924D215030404040D8
:1035A00050402A153B054C055D052CF021979E01E6
:1035B00040E050E0219657FF04C020E030E040E0BA
:1035C00050E02093CE263093CF26809172289091A0
:1035D00073282091CE263091CF26BC016C9FC0016C
:1035E0006D9F900D7C9F900D1124820F931F8093EF
:1035F0000424909305248824992480910A278130FB
:1036000009F1813038F0823009F44BC0833009F081
:10361000EAC089C0E09107242091D0263091D126BC
:10362000220F331FF0E0EE0FFF1FE753FB4D8081A9
:103630009181AC01249FC001259F900D349F900D76
:1036400011241CC081E00E94D92A64E070E00E942D
:103650005D4DCB01880F991F880F991F6AE070E0BC
:103660000E945D4D8091D0269091D1269C01629F51
:10367000C001639F900D729F900D11246AE070E06D
:103680000E945D4DCB014091C02A5091C12A9A0100
:10369000220F331F220F331F240F351F820F931F5A
:1036A0003CC081E00E94D92A64E070E00E945D4D38
:1036B000CB01E0910724F0E0EE0FFF1FE753FB4D35
:1036C0000190F081E02DEE0FFF1F4091C02A509134
:1036D000C12A9A01220F331F220F331F240F351FD7
:1036E000E20FF31F880F991F880F991F6AE070E09F
:1036F0000E945D4D8091D0269091D126AC01649FAF
:10370000C001659F900D749F900D11246AE070E0D8
:103710000E945D4DCF01860F971F62E070E00E940E
:103720005D4DEB0162C083E00E94D92AFC018091CB
:103730009F209091A0208E179F0708F4FC01C09154
:10374000C624D091C7245E01CC24DD247C0100E096
:1037500010E0C601B501660F771F881F991F9F01F2
:10376000442737FD4095542F0E942A4D6E0D7F1D32
:10377000801F911FEE0CFF1C001F111FA801970155
:103780000E94924D21503040404050402A153B0548
:103790004C055D0524F021979E0140E050E057FF65
:1037A00004C020E030E040E050E0209372283093E5
:1037B000732820917228309173284091CE26509121
:1037C000CF268091272790912827BC01269FC001F2
:1037D000279F900D369F900D1124840F951F809385
:1037E000042490930524C0E0D0E080919C20813097
:1037F00059F11814190474F49401442737FD4095C5
:10380000542F62E17AE780E090E00E94704D8EE8EC
:103810009AE013C081149104C9F022273327281994
:103820003909442737FD4095542F62E17AE780E05B
:1038300090E00E94704D82E09BE0BA01A90122E075
:1038400001E00E94EF380EC0C0E0D0E082E09BE0D3
:103850004EE450E060E070E022E000E00E94EF38CB
:10386000882499241C161D0674F49E01442737FDF4
:103870004095542F62E17AE780E090E00E94704D1D
:1038800086EC9AE012C02097A9F0222733272C1B40
:103890003D0B442737FD4095542F62E17AE780E0E5
:1038A00090E00E94704D8AE39BE0BA01A90123E0F9
:1038B00001E008C08AE39BE04EE450E060E070E085
:1038C00023E000E00E94EF381092FF238C169D0643
:1038D0001CF081E08093FF23CDB7DEB7ECE00C94C1
:1038E000CF4DA4E0B0E0E7E7FCE10C94B54D8B834D
:1038F0009C837B015A0181E061E00E94A72A8C81B0
:10390000806F89838B818A8380E062E0AE014F5FA4
:103910005F4F0E94A91400E010E00894E11CF11C24
:10392000011D111DC801B7012FEF3FE740E050E036
:103930000E942A4D209127273091282740E050E00F
:103940000E94704D80E0B9010E94492BCC24DD24F7
:103950000894A11CB11CC11CD11CC601B5012FEFDC
:103960003FE740E050E00E942A4D2091C62430916C
:10397000C72440E050E00E94704D81E0B9010E94F0
:10398000492B81E060E00E94A72A2496EAE00C948B
:10399000D14DA1E0B0E0EFECFCE10C94B54D5C0141
:1039A000FC01E080F180C280D38084818093032475
:1039B000958190934A2686818093C824882319F0A4
:1039C0009093CD2609C0892F90E023E0880F991F9E
:1039D0002A95E1F78093CD261092FE2381E061E0E5
:1039E0000E94A72A91E007E010E00FC0A501400F58
:1039F000511F892F6091CD2699830E94A91480912F
:103A0000CD26080F111D99819F5F8091032489178E
:103A100068F77F2D60E06E0D711D80E00E94492BDC
:103A20007D2D60E06C0D711D81E00E94492B81E0CD
:103A300060E00E94A72A2196EAE00C94D14D2F92D3
:103A40003F924F925F926F927F929F92AF92BF92FE
:103A5000CF92DF92EF92FF920F931F93DF93CF935A
:103A6000CDB7DEB7A897CDBFDEBF5C012B011A0131
:103A70008DB79EB78FA398A78FB781E061E00E94B2
:103A8000A72A8091FE23823018F081E00E94352A17
:103A90001092FE238091CD2690910324899F60018E
:103AA0001124C60191706D2D6695892B09F06F5F09
:103AB000ADB7BEB7AC19BD09ADBFBEBF6DB67EB662
:103AC0000894611C711C70E080E090E0950140E07A
:103AD00050E00E942A4D7B018C010894E11CF11CEE
:103AE000011D111DF9E0EE0CFF1C001F111FFA95BE
:103AF000D1F784E798E2B801A7010E94503C982EC4
:103B0000882309F059C180917A2890917B28A0914F
:103B10007C28B0917D288E159F05A007B10709F07C
:103B20004BC184E798E2B301A6019E012F5F3F4F8E
:103B30000E94C23E182F882309F017C189819A81FB
:103B40008C159D0509F011C111E0EE24FF24E7E07A
:103B5000CE2ED12CCC0EDD1E73E0A72EB12CAC0ED8
:103B6000BD1EF7C08D9181938E2F8C198917D0F3CC
:103B7000E90EF11C80919D28813009F0E3C0983056
:103B8000E9F49F8188859817C9F449858A85481783
:103B9000A9F43B858C85381789F42D858E852817E7
:103BA00069F4941759F4931749F4921739F4812F53
:103BB00061E0A6010E94A914E1E001C0E0E080916B
:103BC000CD26883109F04EC06F818885681709F0CD
:103BD00049C039858A85381709F044C02B858C8502
:103BE000281709F03FC09D858E859817D9F5631772
:103BF000C9F56217B9F56917A9F54F85888948177E
:103C000089F539898A89381769F52B898C892817AC
:103C100049F59D898E89981729F5431719F542179B
:103C200009F54917F9F49F89888D9817D9F4598DAA
:103C30008A8D5817B9F43B8D8C8D381799F42D8DDA
:103C40008E8D281779F4951769F4931759F4921704
:103C500049F46B834C839D83812F63E0A5010E940F
:103C6000A914E1E08091CD26803209F069C07F81FE
:103C70008885781709F064C039858A85381709F076
:103C80005FC02B858C85281709F05AC09D858E85CD
:103C9000981709F055C0731709F052C0721709F050
:103CA0004FC0791709F04CC06F858889681709F0F3
:103CB00047C039898A89381709F042C02B898C8915
:103CC0002817F1F59D898E899817D1F56317C1F5ED
:103CD0006217B1F56917A1F54F89888D481781F5ED
:103CE000398D8A8D381761F52B8D8C8D281741F50C
:103CF0009D8D8E8D981721F5431711F5421701F50B
:103D00004917F1F49F8D88A19817D1F459A18AA180
:103D10005817B1F43BA18CA1381791F42DA18EA1B5
:103D2000281771F4951761F4931751F4921741F421
:103D30007B836C834D839E83812F64E0A50106C045
:103D4000EE2331F4812F6091CD26A6010E94A914A3
:103D50001F5F80910324811708F453C09091CD26F2
:103D6000D301AE0DBF1DF601FFCE8091B320882395
:103D700009F047C087E29BE00E942F4C8DB79EB7A9
:103D800008978DBF9EBFEDB7FEB7319689E09BE0E7
:103D9000ADB7BEB711968D939C9312971283138281
:103DA000A482B58289819A81868397830E94714C0F
:103DB0008DB79EB7089623C08091B320882309F55C
:103DC0008FED9AE00E942F4CADB7BEB71A97ADBFEA
:103DD000BEBFEDB7FEB731968CEB9AE011968D938E
:103DE0009C93129792821382A482B582E682F78214
:103DF000008711870E94714C8DB79EB70A968DBFC0
:103E00009EBF8091CC268530C9F0B20180E090E061
:103E10006F5F7F4F8F4F9F4F2FEF3FE740E050E0A6
:103E20000E942A4D209127273091282740E050E01A
:103E30000E94704D80E0B9010E94492B80910A27B1
:103E40008530C9F0B10180E090E06F5F7F4F8F4F08
:103E50009F4F2FEF3FE740E050E00E942A4D209116
:103E6000C6243091C72440E050E00E94704D81E0AC
:103E7000B9010E94492B80910024813059F580912D
:103E8000CE269091CF264091CE265091CF2663E04A
:103E9000969587956A95E1F790E0FC01EE55FA4D0D
:103EA000208130E053E0880F991F5A95E1F7481BB5
:103EB00087E090E0841B910902C0359527958A958B
:103EC000E2F720FD03C080E060E002C080E061E036
:103ED0000E94A72A81E060E00E94A72AAFA1B8A5AE
:103EE000ADBFBEBFA896CDBFDEBFCF91DF911F9102
:103EF0000F91FF90EF90DF90CF90BF90AF909F9089
:103F00007F906F905F904F903F902F900895A0E02A
:103F1000B0E0EDE8FFE10C94B54D81E080939C208A
:103F2000A0902727B0902827C091C624D091C724FD
:103F30000E94FF4A10927228109273284FC010926C
:103F4000CE261092CF2635C080917228909173288A
:103F50002091CE263091CF26849FF001859FF00DD1
:103F6000949FF00D1124E20FF31F80910224813001
:103F700061F46091CE267091CF26409172285091C5
:103F80007328CF010E94711C0BC06091CE267091E6
:103F9000CF264091722850917328CF010E941F1D97
:103FA0008091CE269091CF2601968093CE26909335
:103FB000CF268091CE269091CF26409127275091F1
:103FC00028278417950708F4BFCF80917228909115
:103FD00073280196809372289093732820917228F9
:103FE000309173288091C6249091C72428173907EF
:103FF00008F4A5CF0E94144B7B018C018DB79EB7AE
:1040000008978DBF9EBFCDB6DEB60894C11CD11CEB
:104010008DE797E0EDB7FEB781839283F601E282E8
:10402000F38204831583CA9DB001CB9D700DDA9D88
:10403000700D112480E090E028EE33E040E050E085
:104040000E942A4DA80197010E94704DF601268317
:1040500037830E94714C1092CE261092CF26109278
:104060007228109273288DB79EB708968DBF9EBF99
:10407000CDB7DEB7EAE00C94D14DA2E0B2E0E3E4C4
:10408000F0E20C94BC4D182F8A3080F400D000D0A0
:10409000EDB7FEB7319681E294E2ADB7BEB71196A7
:1040A0008D939C93129785E790E21FC081E294E282
:1040B000143670F400D000D0EDB7FEB73196ADB72E
:1040C000BEB711968D939C93129783E890E20DC032
:1040D00000D000D0EDB7FEB73196ADB7BEB71196A0
:1040E0008D939C93129780E990E28283938314834B
:1040F00015820E940D508DB79EB706968DBF9EBF4C
:1041000084E798E20E94083B84E798E261E274E267
:1041100041E00E94B040882309F0ABC084E798E2F8
:10412000BE016D5F7F4F40E052E09E012F5F3F4F29
:104130000E94C23E882309F099C089819A818050EB
:10414000924009F093C08B81809327278C818093C4
:1041500028278D818093C6248E818093C7248F81E8
:1041600080930324988590934A26892F8B5084301E
:1041700048F49A5090934A2681E08093C824909303
:10418000CD260BC01092C824892F90E0A3E0880FA1
:10419000991FAA95E1F78093CD261092722810926C
:1041A000732880917228909173288093CE269093E3
:1041B000CF26109204241092052481E080939C2045
:1041C0001092FE238091B320882309F040C000D0D4
:1041D0000F92EDB7FEB731968EE998E0ADB7BEB756
:1041E00011968D939C931297128313820E94714CA7
:1041F0008DB79EB708978DBF9EBFEDB7FEB73196BE
:104200008BE498E0ADB7BEB711968D939C9312974F
:104210008091272790912827828393838091C624B9
:104220009091C72484839583809103248683178289
:1042300080914A26808711868091C82482871386C0
:104240000E94714C8DB79EB70C968DBF9EBF80911A
:104250000424909105246091CE267091CF26409140
:104260007228509173280E941F1D07C08CE298E0AD
:1042700002C080E198E00E942F4C10920224CE5F91
:10428000DD4FE3E00C94D84DFC018081803709F0CC
:104290008EC0928180E02181820F911D8093CE2675
:1042A0009093CF26948180E02381820F911D80938B
:1042B0007228909373288091CE269091CF26809378
:1042C0001F269093202680917228909173288093C6
:1042D00091259093922520917228309173284091D6
:1042E000CE265091CF268091272790912827BC0178
:1042F000269FC001279F900D369F900D1124840F9B
:10430000951F80930424909305241092FE2380919E
:10431000B320882351F52091CE263091CF264091AD
:1043200072285091732860910424709105248DB7F0
:104330009EB708978DBF9EBFEDB7FEB7319683EB52
:104340009BE0ADB7BEB711968D939C9312972283D5
:10435000338344835583668377830E94714C6DB7A2
:104360007EB7685F7F4F6DBF7EBF80910224813032
:1043700079F480910424909105246091CE26709167
:10438000CF2640917228509173280E94711C089585
:1043900080910424909105246091CE267091CF26BF
:1043A00040917228509173280E941F1D089580E04B
:1043B00068E048EE50E20E94A9140895FC012181B2
:1043C000808190E0FC013197E131F10508F048C0AF
:1043D000E650FF4F0C94E44D822F62E040E051E242
:1043E00043C0822F62E042E051E23EC0822F0E9431
:1043F0003D200895822F0E94CB2B0895822F0E948A
:104400006F2B0895822F90E0880F991F8093A92029
:104410009093AA200895822F0E9447320895822FF8
:104420000E94372F0895822F0E94BC160895822F74
:1044300081500E94D92A00D00F9225E33CE0EDB7CD
:10444000FEB721833283838394830E94714C0F9043
:104450000F900F900F900895822F0E944A17089591
:1044600080E068E040ED50E20E94A91408956F9248
:104470007F929F92AF92BF92CF92DF92EF92FF9284
:104480000F931F93DF93CF930F920F92CDB7DEB7A9
:10449000FC01E081E33409F49BC2E43408F05BC022
:1044A000E03209F4B6C0E13258F5E43109F419C339
:1044B000E53198F4E13109F406C3E23138F4EE2332
:1044C00009F472C2E03109F015C4F9C2E23109F40D
:1044D00001C3E33109F00EC401C3E73109F427C376
:1044E000E83138F4E53109F4FFC2E63109F002C4DD
:1044F00006C3E83109F41FC3E93109F0FBC31EC349
:10450000E63209F490C3E73298F4E33209F46CC35D
:10451000E43238F4E13209F453C3E23209F0EAC379
:1045200059C3E43209F46FC3E53209F0E3C359C15A
:10453000E03409F43EC2E13438F4E03309F4FFC05A
:10454000E53309F0D7C3DAC1E13409F437C2E23404
:1045500009F0D0C338C2E43909F475C2E53958F519
:10456000E03609F456C2E13698F4E63409F43FC265
:10457000E73438F4E43409F430C2E53409F0BAC35E
:1045800031C2E73409F438C2E03509F0B3C33EC2A2
:10459000E13909F449C2E23938F4E03709F43CC2A0
:1045A000E03909F0A7C33BC2E23909F442C2E3395A
:1045B00009F0A0C343C2EA3909F463C2EB3998F4A5
:1045C000E73909F44FC2E83938F4E53909F440C253
:1045D000E63909F08FC341C2E83909F448C2E93924
:1045E00009F088C349C2ED3909F45AC2EE3938F4EA
:1045F000EB3909F44BC2EC3909F07CC34CC2EF39FA
:1046000009F458C2EF3908F450C2EF3F09F072C301
:10461000F8C1109206241092072410929C2011E0F9
:104620001093A1201093A2201092FE2382E09AE121
:104630004EE450E060E070E021E001E00E94C93803
:104640008EE89AE04EE450E060E070E022E000E0A6
:104650000E94C93886EC9AE04EE450E060E070E0D9
:1046600023E00E94C9388091A320882359F58091C6
:10467000A420882339F52091A5203091A62080918F
:10468000A7209091A82028173907E1F40F920F92E4
:1046900087E69DE0ADB7BEB711968D939C931297B8
:1046A0000E94714C10930C240F900F900E94BF0C2D
:1046B0004091A5205091A62060E070E08FEB9CE037
:1046C00024E03BC010920C248091A320882359F051
:1046D0004091A5205091A62060E070E089E19EE025
:1046E00024E000E00CC00E94190E4091A5205091DA
:1046F000A62060E070E089E19EE024E001E00E94F5
:10470000C9388091A420882369F04091A720509156
:10471000A82060E070E089E99DE025E000E00E94CB
:10472000C938EEC20E94990D4091A7205091A8204F
:1047300060E070E089E99DE025E001E0F0CF81E0F4
:1047400080939C2082E09AE14EE450E060E070E0CB
:1047500021E000E00E94C9388EE89AE04EE450E083
:1047600060E070E022E00E94C93886EC9AE04EE4F6
:1047700050E060E070E023E00E94C93880910C2492
:104780004091A5205091A620882331F060E070E090
:104790008FEB9CE024E011C060E070E089E19EE0D6
:1047A00024E000E00E94C9384091A7205091A82041
:1047B00060E070E089E99DE025E00E94C9388091C1
:1047C000A320882321F481E060E00E941D108091E5
:1047D000A420882309F094C281E060E00E94590F70
:1047E0008FC2109206241092072410929C201092DF
:1047F000FE2382E09AE14EE450E060E070E021E0C8
:1048000001E00E94C9388EE89AE04EE450E060E092
:1048100070E022E000E00E94C93886EC9AE04EE4A5
:1048200050E060E070E023E00E94C9388091A3204E
:104830008823D9F48091A4208823B9F42091A5205D
:104840003091A6208091A7209091A82028173907A1
:1048500061F40E94BF0C4091A5205091A62060E019
:1048600070E08FEB9CE024E037C08091A320882388
:1048700059F04091A5205091A62060E070E089E1B8
:104880009EE024E000E00CC00E94190E4091A5209B
:104890005091A62060E070E089E19EE024E001E014
:1048A0000E94C9388091A420882359F04091A72004
:1048B0005091A82060E070E089E99DE025E000E0EB
:1048C0000CC00E94990D4091A7205091A82060E053
:1048D00070E089E99DE025E001E00E94C93860911F
:1048E000A9207091AA2082E19AE70E94494DAB016C
:1048F00060E070E08EEF99E120E01FCF81E08093CF
:104900009C2082E09AE14EE450E060E070E021E01B
:1049100000E00E94C9388EE89AE04EE450E060E082
:1049200070E022E00E94C93886EC9AE04EE450E044
:1049300060E070E023E00E94C93880910C2440912F
:10494000A5205091A620882331F060E070E08FEB25
:104950009CE024E011C060E070E089E19EE024E08A
:1049600000E00E94C9384091A7205091A82060E043
:1049700070E089E99DE025E00E94C9382091A920D6
:104980003091AA2040E050E062E17AE780E090E0D8
:104990000E94924D8EEF99E1BA01A90120E000E05A
:1049A0000E94C93882E092C080E068E049E354E2A6
:1049B000A5C180E068E144E051E2A0C180E068E187
:1049C0004CE151E29BC180E068E144E351E296C1D1
:1049D00080E068E14CE451E291C180E068E144E6A6
:1049E00051E28CC180E068E14CE751E287C180E090
:1049F00068E144E951E282C180E068E14CEA51E2B9
:104A00007DC180E068E044EC51E278C10E94482A10
:104A100077C10E94B32B74C10E94871F71C180E0CF
:104A200060E24CEC51E26AC180E060E24CEE51E29F
:104A300065C180E060E24CE052E260C180E060E28B
:104A40004CE252E25BC180E060E24CE452E256C1CB
:104A500080E060E24CE652E251C180E060E24CE866
:104A600052E24CC180E060E24CEA52E247C180E091
:104A700060E24CEC52E242C180E060E24CEE52E275
:104A80003DC180E060E24CE053E238C180E060E28A
:104A90004CE253E233C180E060E24CE453E22EC1C9
:104AA00080E060E24CE653E229C180E060E24CE83D
:104AB00053E224C180E060E24CEA53E21FC181E08E
:104AC000809300241DC11092002480E060E00E94C9
:104AD000A72A16C181E080939D2812C110929D28BB
:104AE0000FC10E94FA0B0CC100D00F9288E49DE028
:104AF000EDB7FEB7818392838CEC93E2F2C09CE425
:104B0000E92E96E2F92E11E00EEF6E010894C11C19
:104B1000D11C0983D7018D917D018A83812F62E0A9
:104B2000A6010E94A9141F5F113899F7E9C081E01E
:104B30008093B320E5C01092B320E2C0EDB7FEB77A
:104B40007297EDBFFEBF319686E29DE0ADB7BEB76E
:104B500011968D939C93129780910B2790910C271F
:104B6000828393838091B5249091B6248483958326
:104B700080911F2690912026868397838091CC2652
:104B8000808711868091D0269091D1268287938745
:104B90008091C02A9091C12A848795878091912520
:104BA000909192258687978780910A27808B118A1A
:104BB0000E94714CEDB7FEB77296EDBFFEBFA0C06C
:104BC00080E090E06FEF0E9448520F920F9284EFC6
:104BD0009CE012C080E090E060E00E9448520F929A
:104BE0000F9282EC9CE016C088E0E0E2F7E082875A
:104BF0000F920F9287E99CE0ADB7BEB711968D93E7
:104C00009C9312970BC0E0E2F7E012860F920F928E
:104C100081E79CE0EDB7FEB7818392830E94714CDF
:104C20000F900F906DC09924EE24FF248701AA24D1
:104C3000BB24650180E4682E8CE9782E82E00E9416
:104C4000D92AAA2797FDA095BA2FE80EF91E0A1FA8
:104C50001B1F83E00E94D92AAA2797FDA095BA2F8F
:104C6000A80EB91ECA1EDB1EC3010197F1F793946B
:104C7000F4E69F1619F7C801B70124E630E040E0DA
:104C800050E00E94704D20939D2030939E20C601DD
:104C9000B50124E630E040E050E00E94704D2093E2
:104CA0009F203093A02000D00F928CE59CE0ADB700
:104CB000BEB711968D939C93129780919D209091F1
:104CC0009E2013968D939C9314970E94714C87E4B9
:104CD0009CE0EDB7FEB78183928380919F209091F5
:104CE000A020838394830E94714C0F900F900F90AB
:104CF0000F9006C080E068E048EC50E20E94A914E2
:104D00000F900F90CF91DF911F910F91FF90EF9037
:104D1000DF90CF90BF90AF909F907F906F9008955D
:104D2000A0E5B6E0E6E9F6E20C94B34D80E090E051
:104D30000E943852E82E83E995E26E2D0E946D3A6A
:104D40008EE898E26E2D0E946D3A8BE396E26E2D0E
:104D50000E946D3A87EB94E26E2D0E946D3A83E9D2
:104D600095E260E874E040E450E023E20E941E39DE
:104D70008EE898E260E974E040E450E023E20E94AB
:104D80001E398BE396E260EA74E040E450E023E2EF
:104D90000E941E3987EB94E260EB74E040E450E03F
:104DA00023E20E941E398E2D0E9415380E946B3519
:104DB0008EED96E38093992490939A2480E090E07E
:104DC0002AE030E0FC01E753FB4D20833183FC01F6
:104DD000E75DF84D208331830296883C910591F779
:104DE000E2EAF5E220E030E04FEF2330310520F039
:104DF000C9010697039710F4408301C010822F5F0A
:104E00003F4F31962D37310581F71092722810925D
:104E1000732880917228909173288093CE26909366
:104E2000CF268091CE269091CF2680939125909386
:104E3000922580931F26909320261092C02A1092CC
:104E4000C12A1092B5241092B6241092D026109246
:104E5000D12610920B2710920C2710920A2710923D
:104E6000CC2681E080934A261092C82410929D2877
:104E700081E090E00E9438528F3FD9F4198224E0FB
:104E800014C0E82FF0E0E55BF94D982F9370908304
:104E9000882319F0992309F420838981E82FF0E011
:104EA000EF50F84D80838F5F89838981813848F383
:104EB00017C0198211C00F2D10E0C8018F5F9F4FDE
:104EC0000E943852F801E55BF94D80830F50184D70
:104ED000F801F082F394F982F980F0E8FF1558F7B1
:104EE00085EC9EE00E942F4C81E061E00E94122A36
:104EF00001E060E2C62E63E0D62E3AC080E00E9458
:104F0000EE47082F81FF0DC086EB9EE00E942F4CDC
:104F10000E940A3704C080E00E94EE47082F01FD7E
:104F2000FACF02FF04C089E99EE00E942F4C19824B
:104F300010C080E00E941247082F80FF0DC08981B9
:104F40008F5F898384EF91E0F6013197F1F7019744
:104F5000D9F78981843068F300FF0AC08FE79EE0AB
:104F60000E942F4C80E00E94EE47082F81FFFACF6D
:104F700000FDC4CF87E69EE00E942F4C80E06AE0EF
:104F8000AE014F5F5F4F0E945A48892B59F58BE560
:104F90009EE00E942F4C89818430A1F0853028F456
:104FA000813051F08230D1F40AC0883089F08C30E1
:104FB00091F0863099F409C086E59EE011C082E543
:104FC0009EE00EC08DE49EE00BC088E49EE008C029
:104FD00083E49EE005C08DE39EE002C088E39EE08E
:104FE0000E942F4C8FE19EE00E942F4C80E06EE9E2
:104FF00078E20E94CF3A813051F0813028F082303F
:1050000049F0833069F409C085E19EE00BC08CE073
:105010009EE008C089EF9DE005C08CEE9DE002C0D7
:1050200087EE9DE00E942F4C80E068E049E354E267
:105030000E94A91481E060E00E94122A0E94482A7E
:105040008FEFE81609F0E2C089EB9DE00E942F4C3B
:1050500057EEA52E53E0B52E47EC942E37EC832E59
:1050600022E0C22ED12CCC0EDD1E03C0082D57012C
:1050700048010E94AB36892B09F453C0C6010E9437
:1050800011378430910539F18530910548F482302B
:105090009105C9F083309105D0F40197E1F50FC077
:1050A0008930910501F18A30910518F4059799F539
:1050B00016C08E339105D9F0CF9769F528C0C60187
:1050C0000E9437222EC0C6010E94DE212AC0C601DE
:1050D0000E947E1526C0C6010E945C1522C0C60132
:1050E0000E9444211EC0C6010E9403151AC020E080
:1050F00030E0F901EE55FA4DD601A20FB31F8C91A5
:1051000080832F5F3F4F2E33310599F70AC0C601C8
:105110000E94E10B06C080E068E048EF50E20E9488
:10512000A91480919C20882309F0A3CFE090042447
:10513000F0900524EA14FB0429F1E0900424F09097
:10514000052480910224813079F480910424909187
:1051500005246091CE267091CF26409172285091FF
:1051600073280E94711C0EC0809104249091052424
:105170006091CE267091CF2640917228509173286D
:105180000E941F1D8091A3208823E1F480910A24AE
:105190008A31C0F4109106241915A9F01091062443
:1051A0006091A12080E00E941D108091A12090E0DC
:1051B0006091B4207091B52001960E94494D809372
:1051C000A12001C0192D8091A420882309F04ECF81
:1051D00080910B248A3108F049CF009107240815EB
:1051E00009F445CF009107246091A22080E00E943D
:1051F000590F8091A22090E06091B6207091B72065
:1052000001960E94494D8093A22031CF8BE89DE00A
:105210000E942F4C8E010D5B1F4F0E94AB36892BD5
:10522000E1F3C8010E9411378130910519F0C2974E
:1052300049F404C0C8010E943722EFCFC8010E9480
:10524000C91CEBCF80E068E040E051E20E94A91465
:10525000E4CF1F920F920FB60F9208B60F9209B6C5
:105260000F920BB60F92112418BE19BE1BBE2F93BE
:105270003F934F935F936F937F938F939F93AF93DE
:10528000BF93EF93FF9387EB94E20E943A3AFF912A
:10529000EF91BF91AF919F918F917F916F915F91AE
:1052A0004F913F912F910F900BBE0F9009BE0F9021
:1052B00008BE0F900FBE0F901F9018951F920F926F
:1052C0000FB60F9208B60F9209B60F920BB60F9257
:1052D000112418BE19BE1BBE2F933F934F935F93AB
:1052E0006F937F938F939F93AF93BF93EF93FF93AE
:1052F0008BE396E20E943A3AFF91EF91BF91AF9112
:105300009F918F917F916F915F914F913F912F91DD
:105310000F900BBE0F9009BE0F9008BE0F900FBEEE
:105320000F901F9018951F920F920FB60F9208B60C
:105330000F9209B60F920BB60F92112418BE19BE28
:105340001BBE2F933F934F935F936F937F938F93E6
:105350009F93AF93BF93EF93FF938EE898E20E94E1
:105360003A3AFF91EF91BF91AF919F918F917F91C9
:105370006F915F914F913F912F910F900BBE0F90C6
:1053800009BE0F9008BE0F900FBE0F901F9018958A
:105390001F920F920FB60F9208B60F9209B60F9296
:1053A0000BB60F92112418BE19BE1BBE2F933F934C
:1053B0004F935F936F937F938F939F93AF93BF931D
:1053C000EF93FF9383E995E20E943A3AFF91EF91C0
:1053D000BF91AF919F918F917F916F915F914F910D
:1053E0003F912F910F900BBE0F9009BE0F9008BEFA
:1053F0000F900FBE0F901F9018950F93DF93CF93D0
:105400000F92CDB7DEB72FB72983F8941BBEFC01EE
:1054100008ED04BF608389818FBF0F90CF91DF912A
:105420000F910895282F30E0C9018C7F892BE1F47A
:10543000862F8E7FC9F42C5F3F4F613059F481E095
:1054400090E002C0880F991F2A95E2F7E0E0F7E0AC
:105450008683089581E090E002C0880F991F2A9505
:10546000E2F7E0E0F7E085830895282F30E0C901F6
:105470008C7F892B61F42C5F3F4F81E090E002C06C
:10548000880F991F2A95E2F7E0E0F7E087830895F7
:1054900020E030E0A0E0B7E060E240E253E01796A1
:1054A0006C9317978CEA9DE0FA013197F1F7019719
:1054B000D9F72F5F3F4F2A30310589F70895482FDC
:1054C00050E0CA018C7F892B79F56623B9F44C5FD3
:1054D0005F4F81E090E09C01042E02C0220F331F39
:1054E0000A94E2F744505040E0E2F7E0268302C01D
:1054F000880F991F4A95E2F7818308956130A1F4DE
:1055000081E090E09C01042E02C0220F331F0A9418
:10551000E2F7E0E2F7E022834C5F5F4F02C0880FC2
:10552000991F4A95E2F785830895282F30E0C90135
:105530008C7F892B11F080E008958091280790E0FE
:1055400002C0959587952A95E2F781700895282FD6
:1055500030E0C9018C7F892BD1F4862F8E7FB9F47E
:10556000613059F481E090E002C0880F991F2A95BC
:10557000E2F7E0E2F7E08583089581E090E002C081
:10558000880F991F2A95E2F7E0E2F7E086830895F5
:10559000282F30E0C9018C7F892B51F481E090E005
:1055A00002C0880F991F2A95E2F7E0E2F7E08783AF
:1055B0000895A2E0B0E0EFEDFAE20C94BD4D282F83
:1055C00030E0C901887F892B19F020E030E05CC011
:1055D00080E1E0E4F6E08683C90187709070880F6F
:1055E000991F880F991F8068E0ECF8E08383809111
:1055F000C20887FFFCCF80E1E0ECF8E08383809174
:10560000C20887FFFCCFE0E4F6E080E18583868373
:10561000E0ECF8E013828091C20887FFFCCFDE0146
:1056200011969091C308E0ECF8E013828091C208D3
:1056300087FFFCCF8091C30811969C9311978C93A0
:1056400080E1E0E4F6E085832E7F89819A81232B37
:1056500069F49C013F7094FF04C035952795386F1D
:1056600002C03595279529833A830CC094FF04C066
:105670009F709595879504C09061959587959F70CB
:1056800089839A8329813A81C9012296E2E00C94A8
:10569000D94D982F8C7F11F580E860307807F1F0B4
:1056A00080E1E0E6F6E086839770E0ECF9E0938332
:1056B0008091C20987FFFCCFE0ECF9E07383809111
:1056C000C20987FFFCCFE0ECF9E063838091C20957
:1056D00087FFFCCF80E1E0E6F6E085830895A0E057
:1056E000B0E0E5E7FBE20C94B14DB82EC0E0D0E0AD
:1056F00000E217E06624639482E0782EB4E08B2EFB
:10570000A8E09A2EF0E2EF2EF3E0FF2EC12CE7E0A6
:10571000DE2E70E2A72EF801678277828782978259
:1057200088EE93E0F7013197F1F70197D9F78B2DC8
:105730000E94D92ABC0128EE33E0F7013197F1F736
:1057400021503040D1F781E00E94492BC0FF02C0B8
:10575000F601A7822196CC33D105E9F6CDB7DEB7A5
:10576000EEE00C94CD4D0F93DF93CF930F92CDB716
:10577000DEB78FB78983F8941BBE21E089E790E0FC
:10578000FC0108ED04BF208389818FBF0F90CF916A
:10579000DF910F910895A0E0B0E0E1EDFBE20C9401
:1057A000B34D982E00E040EAA42E4FE0B42E30E82E
:1057B000C32E3EE3D32EE12C27E0F22E90E2892E79
:1057C0001DC0143610F4BE0103C0B5016C1B7D0B67
:1057D00080E00E94492B892D0E94D92ABC0181E0DA
:1057E0000E94492BC6010197F1F71F5F6496183C90
:1057F00041F7F70187820F5F0E3121F010E0C0E022
:10580000D0E0DFCFCDB7DEB7ECE00C94CF4DBC01DC
:1058100028E131E140E050E008C0F9012F5F3F4F3F
:10582000E491EE23D1F74F5F5F4F4617570721F002
:10583000F9018491882389F700D00F9284E191E1E6
:10584000EDB7FEB781839283238334830E94714C2A
:105850000F900F900F900F900895A0E0B0E0E3E359
:10586000FCE20C94B44D5C016A017B01922EE801CC
:105870008AE094E10E942F4C87E68883BB27AF2DF6
:105880009E2D8D2D8983CA829B8285E48C83C501E0
:1058900060E7A80125E0092D0E944039D5011D9639
:1058A0008C911D978823D1F71E968C911E9781307D
:1058B000B9F01E962C9100D00F92EDB7FEB731963D
:1058C0008DEE93E1ADB7BEB711968D939C93129771
:1058D000228313820E94714C0F900F900F900F90B3
:1058E000DE0131E020E00DC0E501ED81FE81E20F37
:1058F000F11D908115968C911597981330E02F5FCC
:105900001196291588F3832F90E0CDB7DEB7EBE031
:105910000C94D04DA0E0B0E0E0E9FCE20C94B44D72
:105920005C016A017B01922EE80189E294E10E9408
:105930002F4C87E68883BB27AF2D9E2D8D2D898325
:10594000CA829B8285E48C83C50160E7A80125E0BB
:10595000092D0E944039D5011D968C911D978823F1
:10596000D1F71E968C911E978130B9F01E962C911E
:1059700000D00F92EDB7FEB731968CE094E1ADB751
:10598000BEB711968D939C931297228313820E9427
:10599000714C0F900F900F900F90DE0190E00AC0B5
:1059A000E501ED81FE81E90FF11D808114968C9354
:1059B00014979F5F1196991598F3CDB7DEB7EBE07A
:1059C0000C94D04DA0E0B0E0E8EEFCE20C94B64DB3
:1059D000EC016A017B01B22E8AE494E10E942F4C13
:1059E00082E4D8018C93BB27AF2D9E2D8D2DF8011D
:1059F0008183C282B38285E48483F5E0BF0ECE0149
:105A000060E7A8012B2D00E00E9440398D85882396
:105A1000E9F78E858130B1F02E8500D00F92EDB779
:105A2000FEB731968BE294E1ADB7BEB711968D9378
:105A30009C931297228313820E94714C0F900F90B7
:105A40000F900F90CDB7DEB7E9E00C94D24DA0E0F7
:105A5000B0E0EDE2FDE20C94B44D5C016A017B0123
:105A6000922EE80189E694E10E942F4C87E6888314
:105A7000BB27AF2D9E2D8D2D8983CA82892D8695BA
:105A80008B8386E48C83C50160E7A80125E0092D9E
:105A90000E944039D5011D968C911D978823D1F71E
:105AA0001E968C911E978130B9F01E962C9100D0D5
:105AB0000F92EDB7FEB731968CE494E1ADB7BEB767
:105AC00011968D939C931297228313820E94714C9E
:105AD0000F900F900F900F90DE0131E020E00DC08D
